{"abi":[{"type":"constructor","inputs":[],"stateMutability":"nonpayable"},{"type":"function","name":"getBalance","inputs":[{"name":"chainid","type":"uint256","internalType":"uint256"},{"name":"account","type":"address","internalType":"address"}],"outputs":[{"name":"","type":"uint256","internalType":"uint256"}],"stateMutability":"view"},{"type":"function","name":"setUpUnwrap","inputs":[{"name":"amount","type":"uint256","internalType":"uint256"},{"name":"toChainId","type":"uint256","internalType":"uint256"},{"name":"account","type":"address","internalType":"address"}],"outputs":[],"stateMutability":"nonpayable"},{"type":"function","name":"setUpWrap","inputs":[{"name":"amount","type":"uint256","internalType":"uint256"},{"name":"toChainId","type":"uint256","internalType":"uint256"},{"name":"account","type":"address","internalType":"address"}],"outputs":[],"stateMutability":"nonpayable"},{"type":"function","name":"setupTransfer","inputs":[{"name":"amount","type":"uint256","internalType":"uint256"},{"name":"toChainId","type":"uint256","internalType":"uint256"},{"name":"account","type":"address","internalType":"address"},{"name":"fromChainId","type":"uint256","internalType":"uint256"}],"outputs":[],"stateMutability":"nonpayable"},{"type":"event","name":"Unwrapped","inputs":[{"name":"account","type":"address","indexed":true,"internalType":"address"},{"name":"toChainId","type":"uint256","indexed":true,"internalType":"uint256"},{"name":"amount","type":"uint256","indexed":false,"internalType":"uint256"}],"anonymous":false},{"type":"event","name":"UpdatedBalance","inputs":[{"name":"account","type":"address","indexed":true,"internalType":"address"},{"name":"toChainId","type":"uint256","indexed":true,"internalType":"uint256"},{"name":"fromChainId","type":"uint256","indexed":true,"internalType":"uint256"},{"name":"amount","type":"uint256","indexed":false,"internalType":"uint256"}],"anonymous":false},{"type":"event","name":"WrappedAsset","inputs":[{"name":"account","type":"address","indexed":true,"internalType":"address"},{"name":"toChainId","type":"uint256","indexed":true,"internalType":"uint256"},{"name":"amount","type":"uint256","indexed":false,"internalType":"uint256"}],"anonymous":false}],"bytecode":{"object":"0x608060405234801561001057600080fd5b50600280546001600160a01b03191633179055610492806100326000396000f3fe608060405234801561001057600080fd5b506004361061004c5760003560e01c806348cc095014610051578063b0a7945914610066578063c3ade52c1461008b578063d6bf07cc1461009e575b600080fd5b61006461005f36600461034d565b6100b1565b005b61007961007436600461038a565b61013b565b60405190815260200160405180910390f35b6100646100993660046103b6565b610164565b6100646100ac3660046103b6565b6101e2565b6002546001600160a01b031633146100e45760405162461bcd60e51b81526004016100db906103eb565b60405180910390fd5b6100f084848484610253565b8083836001600160a01b03167f4aaf8be681f82e0c97d45bf3800d8cb5f75f40230ee33ac0c4c054cca21204358760405161012d91815260200190565b60405180910390a450505050565b6001600160a01b0381166000908152602081815260408083208584529091529020545b92915050565b6002546001600160a01b0316331461018e5760405162461bcd60e51b81526004016100db906103eb565b6101998383836102c5565b81816001600160a01b03167ff64ae1cc3e0e07da9c895b3225439175cab5838aca24c4e74852704858c96a7b856040516101d591815260200190565b60405180910390a3505050565b6002546001600160a01b0316331461020c5760405162461bcd60e51b81526004016100db906103eb565b610217838383610300565b81816001600160a01b03167faa6da731311b5198484d642e7adfd49b0c7d8ea247c906619c746af43c35278b856040516101d591815260200190565b6001600160a01b03821660009081526020818152604080832086845290915281208054869290610284908490610436565b90915550506001600160a01b038216600090815260208181526040808320848452909152812080548692906102ba908490610449565b909155505050505050565b6001600160a01b038116600090815260208181526040808320858452909152812080548592906102f6908490610449565b9091555050505050565b6001600160a01b038116600090815260208181526040808320858452909152812080548592906102f6908490610436565b80356001600160a01b038116811461034857600080fd5b919050565b6000806000806080858703121561036357600080fd5b843593506020850135925061037a60408601610331565b9396929550929360600135925050565b6000806040838503121561039d57600080fd5b823591506103ad60208401610331565b90509250929050565b6000806000606084860312156103cb57600080fd5b83359250602084013591506103e260408501610331565b90509250925092565b6020808252818101527f4f776e61626c653a2063616c6c6572206973206e6f7420746865206f776e6572604082015260600190565b634e487b7160e01b600052601160045260246000fd5b8082018082111561015e5761015e610420565b8181038181111561015e5761015e61042056fea26469706673582212201e864054542e0fc678b3869f69deef102068d4eca27bf92c22f31f39da14ca6764736f6c63430008150033","linkReferences":{}},"methodIdentifiers":{"getBalance(uint256,address)":"b0a79459","setUpUnwrap(uint256,uint256,address)":"c3ade52c","setUpWrap(uint256,uint256,address)":"d6bf07cc","setupTransfer(uint256,uint256,address,uint256)":"48cc0950"},"id":20}