{"abi":[{"type":"function","name":"BN254_CONTROL_ID","inputs":[],"outputs":[{"name":"","type":"uint256","internalType":"uint256"}],"stateMutability":"view"},{"type":"function","name":"CONTROL_ID_0","inputs":[],"outputs":[{"name":"","type":"uint256","internalType":"uint256"}],"stateMutability":"view"},{"type":"function","name":"CONTROL_ID_1","inputs":[],"outputs":[{"name":"","type":"uint256","internalType":"uint256"}],"stateMutability":"view"}],"bytecode":{"object":"0x60e6610039600b82828239805160001a60731461002c57634e487b7160e01b600052600060045260246000fd5b30600052607381538281f3fe730000000000000000000000000000000000000000301460806040526004361060475760003560e01c8063168b114614604c578063258038e214607457806386039a3114609a575b600080fd5b60626f51a3d73938c3681118ba0a2549f7c18881565b60405190815260200160405180910390f35b60627f10ff834dbef62ccbba201ecd26a772e3036a075aacbaf47200679a11dcdcf10d81565b60626f44f39e6e6cef91de6d743e7f5b7a1e678156fea264697066735822122001b0982306af45ad3358eb3268ea8315e29a78308ba765001f306f2227bf6e6564736f6c63430008150033","linkReferences":{}},"methodIdentifiers":{"BN254_CONTROL_ID()":"258038e2","CONTROL_ID_0()":"168b1146","CONTROL_ID_1()":"86039a31"},"id":17}