{"abi":[{"type":"constructor","inputs":[],"stateMutability":"nonpayable"},{"type":"receive","stateMutability":"payable"},{"type":"function","name":"allowance","inputs":[{"name":"owner","type":"address","internalType":"address"},{"name":"spender","type":"address","internalType":"address"}],"outputs":[{"name":"","type":"uint256","internalType":"uint256"}],"stateMutability":"view"},{"type":"function","name":"approve","inputs":[{"name":"spender","type":"address","internalType":"address"},{"name":"amount","type":"uint256","internalType":"uint256"}],"outputs":[{"name":"","type":"bool","internalType":"bool"}],"stateMutability":"nonpayable"},{"type":"function","name":"balanceOf","inputs":[{"name":"account","type":"address","internalType":"address"}],"outputs":[{"name":"","type":"uint256","internalType":"uint256"}],"stateMutability":"view"},{"type":"function","name":"decimals","inputs":[],"outputs":[{"name":"","type":"uint8","internalType":"uint8"}],"stateMutability":"view"},{"type":"function","name":"decreaseAllowance","inputs":[{"name":"spender","type":"address","internalType":"address"},{"name":"subtractedValue","type":"uint256","internalType":"uint256"}],"outputs":[{"name":"","type":"bool","internalType":"bool"}],"stateMutability":"nonpayable"},{"type":"function","name":"increaseAllowance","inputs":[{"name":"spender","type":"address","internalType":"address"},{"name":"addedValue","type":"uint256","internalType":"uint256"}],"outputs":[{"name":"","type":"bool","internalType":"bool"}],"stateMutability":"nonpayable"},{"type":"function","name":"mintWithRiscZeroProof","inputs":[{"name":"seal","type":"bytes","internalType":"bytes"},{"name":"imageId","type":"bytes32","internalType":"bytes32"},{"name":"postStateDigest","type":"bytes32","internalType":"bytes32"},{"name":"journal","type":"bytes","internalType":"bytes"}],"outputs":[],"stateMutability":"nonpayable"},{"type":"function","name":"name","inputs":[],"outputs":[{"name":"","type":"string","internalType":"string"}],"stateMutability":"view"},{"type":"function","name":"symbol","inputs":[],"outputs":[{"name":"","type":"string","internalType":"string"}],"stateMutability":"view"},{"type":"function","name":"totalSupply","inputs":[],"outputs":[{"name":"","type":"uint256","internalType":"uint256"}],"stateMutability":"view"},{"type":"function","name":"transfer","inputs":[{"name":"to","type":"address","internalType":"address"},{"name":"value","type":"uint256","internalType":"uint256"}],"outputs":[{"name":"","type":"bool","internalType":"bool"}],"stateMutability":"nonpayable"},{"type":"function","name":"transferFrom","inputs":[{"name":"from","type":"address","internalType":"address"},{"name":"to","type":"address","internalType":"address"},{"name":"value","type":"uint256","internalType":"uint256"}],"outputs":[{"name":"","type":"bool","internalType":"bool"}],"stateMutability":"nonpayable"},{"type":"function","name":"unwrapNativeEther","inputs":[{"name":"amount","type":"uint256","internalType":"uint256"}],"outputs":[],"stateMutability":"nonpayable"},{"type":"function","name":"wrapNativeEther","inputs":[],"outputs":[],"stateMutability":"payable"},{"type":"event","name":"Approval","inputs":[{"name":"owner","type":"address","indexed":true,"internalType":"address"},{"name":"spender","type":"address","indexed":true,"internalType":"address"},{"name":"value","type":"uint256","indexed":false,"internalType":"uint256"}],"anonymous":false},{"type":"event","name":"Transfer","inputs":[{"name":"from","type":"address","indexed":true,"internalType":"address"},{"name":"to","type":"address","indexed":true,"internalType":"address"},{"name":"value","type":"uint256","indexed":false,"internalType":"uint256"}],"anonymous":false}],"bytecode":{"object":"0x60806040523480156200001157600080fd5b506040518060400160405280601281526020017127a6a724902ba920a82822a21022aa2422a960711b815250604051806040016040528060058152602001640deae8aa8960db1b81525081600390816200006c919062000183565b5060046200007b828262000183565b5050506040516200008c90620000d0565b604051809103906000f080158015620000a9573d6000803e3d6000fd5b50600580546001600160a01b0319166001600160a01b03929092169190911790556200024f565b61129b8062000fa083390190565b634e487b7160e01b600052604160045260246000fd5b600181811c908216806200010957607f821691505b6020821081036200012a57634e487b7160e01b600052602260045260246000fd5b50919050565b601f8211156200017e57600081815260208120601f850160051c81016020861015620001595750805b601f850160051c820191505b818110156200017a5782815560010162000165565b5050505b505050565b81516001600160401b038111156200019f576200019f620000de565b620001b781620001b08454620000f4565b8462000130565b602080601f831160018114620001ef5760008415620001d65750858301515b600019600386901b1c1916600185901b1785556200017a565b600085815260208120601f198616915b828110156200022057888601518255948401946001909101908401620001ff565b50858210156200023f5787850151600019600388901b60f8161c191681555b5050505050600190811b01905550565b610d41806200025f6000396000f3fe6080604052600436106100e15760003560e01c80636b3f3bf81161007f578063a457c2d711610059578063a457c2d714610233578063a9059cbb14610253578063b28c2b4a1461026e578063dd62ed3e1461028e57600080fd5b80636b3f3bf8146101c857806370a08231146101e857806395d89b411461021e57600080fd5b806323b872dd116100bb57806323b872dd14610167578063313ce56714610182578063395093511461019e5780634a0dcff4146101be57600080fd5b806306fdde03146100ed578063095ea7b31461011857806318160ddd1461014857600080fd5b366100e857005b600080fd5b3480156100f957600080fd5b506101026102ae565b60405161010f9190610960565b60405180910390f35b34801561012457600080fd5b506101386101333660046109ab565b610340565b604051901515815260200161010f565b34801561015457600080fd5b506002545b60405190815260200161010f565b34801561017357600080fd5b506101386100e83660046109d7565b34801561018e57600080fd5b506040516012815260200161010f565b3480156101aa57600080fd5b506101386101b93660046109ab565b61035a565b6101c661037c565b005b3480156101d457600080fd5b506101c66101e3366004610a18565b610388565b3480156101f457600080fd5b50610159610203366004610a31565b6001600160a01b031660009081526020819052604090205490565b34801561022a57600080fd5b5061010261042a565b34801561023f57600080fd5b5061013861024e3660046109ab565b610439565b34801561025f57600080fd5b506101386100e83660046109ab565b34801561027a57600080fd5b506101c6610289366004610af8565b6104bf565b34801561029a57600080fd5b506101596102a9366004610ba0565b610603565b6060600380546102bd90610bd9565b80601f01602080910402602001604051908101604052809291908181526020018280546102e990610bd9565b80156103365780601f1061030b57610100808354040283529160200191610336565b820191906000526020600020905b81548152906001019060200180831161031957829003601f168201915b5050505050905090565b60003361034e81858561062e565b60019150505b92915050565b60003361034e81858561036d8383610603565b6103779190610c13565b61062e565b6103863334610753565b565b6103923382610812565b604051600090339083908381818185875af1925050503d80600081146103d4576040519150601f19603f3d011682016040523d82523d6000602084013e6103d9565b606091505b50509050806104265760405162461bcd60e51b81526020600482015260146024820152732330b4b632b2103a379039b2b7321032ba3432b960611b60448201526064015b60405180910390fd5b5050565b6060600480546102bd90610bd9565b600033816104478286610603565b9050838110156104a75760405162461bcd60e51b815260206004820152602560248201527f45524332303a2064656372656173656420616c6c6f77616e63652062656c6f77604482015264207a65726f60d81b606482015260840161041d565b6104b4828686840361062e565b506001949350505050565b600560009054906101000a90046001600160a01b03166001600160a01b0316636efef009868686866002876040516104f79190610c34565b602060405180830381855afa158015610514573d6000803e3d6000fd5b5050506040513d601f19601f820116820180604052508101906105379190610c50565b6040518663ffffffff1660e01b8152600401610557959493929190610c69565b602060405180830381865afa158015610574573d6000803e3d6000fd5b505050506040513d601f19601f820116820180604052508101906105989190610cb0565b6105d45760405162461bcd60e51b815260206004820152600d60248201526c24b73b30b634b210383937b7b360991b604482015260640161041d565b600080828060200190518101906105eb9190610cd2565b92505091506105fa3383610753565b50505050505050565b6001600160a01b03918216600090815260016020908152604080832093909416825291909152205490565b6001600160a01b0383166106905760405162461bcd60e51b8152602060048201526024808201527f45524332303a20617070726f76652066726f6d20746865207a65726f206164646044820152637265737360e01b606482015260840161041d565b6001600160a01b0382166106f15760405162461bcd60e51b815260206004820152602260248201527f45524332303a20617070726f766520746f20746865207a65726f206164647265604482015261737360f01b606482015260840161041d565b6001600160a01b0383811660008181526001602090815260408083209487168084529482529182902085905590518481527f8c5be1e5ebec7d5bd14f71427d1e84f3dd0314c0f7b2291e5b200ac8c7c3b92591015b60405180910390a3505050565b6001600160a01b0382166107a95760405162461bcd60e51b815260206004820152601f60248201527f45524332303a206d696e7420746f20746865207a65726f206164647265737300604482015260640161041d565b80600260008282546107bb9190610c13565b90915550506001600160a01b038216600081815260208181526040808320805486019055518481527fddf252ad1be2c89b69c2b068fc378daa952ba7f163c4a11628f55a4df523b3ef910160405180910390a35050565b6001600160a01b0382166108725760405162461bcd60e51b815260206004820152602160248201527f45524332303a206275726e2066726f6d20746865207a65726f206164647265736044820152607360f81b606482015260840161041d565b6001600160a01b038216600090815260208190526040902054818110156108e65760405162461bcd60e51b815260206004820152602260248201527f45524332303a206275726e20616d6f756e7420657863656564732062616c616e604482015261636560f01b606482015260840161041d565b6001600160a01b0383166000818152602081815260408083208686039055600280548790039055518581529192917fddf252ad1be2c89b69c2b068fc378daa952ba7f163c4a11628f55a4df523b3ef9101610746565b60005b8381101561095757818101518382015260200161093f565b50506000910152565b602081526000825180602084015261097f81604085016020870161093c565b601f01601f19169190910160400192915050565b6001600160a01b03811681146109a857600080fd5b50565b600080604083850312156109be57600080fd5b82356109c981610993565b946020939093013593505050565b6000806000606084860312156109ec57600080fd5b83356109f781610993565b92506020840135610a0781610993565b929592945050506040919091013590565b600060208284031215610a2a57600080fd5b5035919050565b600060208284031215610a4357600080fd5b8135610a4e81610993565b9392505050565b634e487b7160e01b600052604160045260246000fd5b600082601f830112610a7c57600080fd5b813567ffffffffffffffff80821115610a9757610a97610a55565b604051601f8301601f19908116603f01168101908282118183101715610abf57610abf610a55565b81604052838152866020858801011115610ad857600080fd5b836020870160208301376000602085830101528094505050505092915050565b600080600080600060808688031215610b1057600080fd5b853567ffffffffffffffff80821115610b2857600080fd5b818801915088601f830112610b3c57600080fd5b813581811115610b4b57600080fd5b896020828501011115610b5d57600080fd5b6020928301975095509087013593506040870135925060608701359080821115610b8657600080fd5b50610b9388828901610a6b565b9150509295509295909350565b60008060408385031215610bb357600080fd5b8235610bbe81610993565b91506020830135610bce81610993565b809150509250929050565b600181811c90821680610bed57607f821691505b602082108103610c0d57634e487b7160e01b600052602260045260246000fd5b50919050565b8082018082111561035457634e487b7160e01b600052601160045260246000fd5b60008251610c4681846020870161093c565b9190910192915050565b600060208284031215610c6257600080fd5b5051919050565b60808152846080820152848660a0830137600060a08683010152600060a0601f19601f88011683010190508460208301528360408301528260608301529695505050505050565b600060208284031215610cc257600080fd5b81518015158114610a4e57600080fd5b600080600060608486031215610ce757600080fd5b83519250602084015191506040840151610d0081610993565b80915050925092509256fea26469706673582212204bb73bdbaa6199ad06c3e08728ffd2167b15dd0e64e6345feac2ffff0a7c37fd64736f6c6343000815003360e060405234801561001057600080fd5b506f51a3d73938c3681118ba0a2549f7c1886080526f44f39e6e6cef91de6d743e7f5b7a1e6760a0527f10ff834dbef62ccbba201ecd26a772e3036a075aacbaf47200679a11dcdcf10d60c05260805160a05160c0516111fc61009f6000396000818160c901526101f501526000818161011601526101c3015260008181606c015261019d01526111fc6000f3fe608060405234801561001057600080fd5b50600436106100625760003560e01c8063168b1146146100675780631bb8068f146100a1578063258038e2146100c457806334baeab9146100eb5780636efef009146100fe57806386039a3114610111575b600080fd5b61008e7f000000000000000000000000000000000000000000000000000000000000000081565b6040519081526020015b60405180910390f35b6100b46100af366004610db4565b610138565b6040519015158152602001610098565b61008e7f000000000000000000000000000000000000000000000000000000000000000081565b6100b46100f9366004610e97565b610280565b6100b461010c366004610efd565b610855565b61008e7f000000000000000000000000000000000000000000000000000000000000000081565b600080600061015261014d85602001516108fc565b610a61565b91509150600084600001518060200190518101906101709190610fd5565b9050306001600160a01b03166334baeab98260000151836020015184604001516040518060a001604052807f000000000000000000000000000000000000000000000000000000000000000081526020017f000000000000000000000000000000000000000000000000000000000000000081526020018981526020018881526020017f00000000000000000000000000000000000000000000000000000000000000008152506040518563ffffffff1660e01b81526004016102369493929190611098565b602060405180830381865afa158015610253573d6000803e3d6000fd5b505050506040513d601f19601f82011682018060405250810190610277919061113f565b95945050505050565b60006107e3565b7f30644e72e131a029b85045b68181585d97816a916871ca8d3c208c16d87cfd4781106102b8576000805260206000f35b50565b600060405183815284602082015285604082015260408160608360076107d05a03fa9150816102ee576000805260206000f35b825160408201526020830151606082015260408360808360066107d05a03fa9150508061031f576000805260206000f35b5050505050565b7f12ac9a25dcd5e1a832a9061a082c15dd1d61aa9c4d553505739d0f5d65dc3be485527f025aa744581ebe7ad91731911c898569106ff5a2d30f3eee2b23c60ee980acd46020860152600060808601866103c387357f2e32a094b7589554f7bc357bf63481acd2d55555c203383782a4650787ff66427f0707b920bc978c02f292fae2036e057be54294114ccc3c8769d883f688a1423f846102bb565b61041360208801357f2ede7c9acf48cf3a3729fa3d68714e2a8435d4fa6db8f7f409c153b1fcdf9b8b7f0bca36e2cbe6394b3e249751853f961511011c7148e336f4fd974644850fc347846102bb565b61046360408801357f2b91a26aa92e1b6f5722949f192a81c850d586d81a60157f3e9cf04f679cccd67f1b8af999dbfbb3927c091cc2aaf201e488cbacc3e2c6b6fb5a25f9112e04f2a7846102bb565b6104b360608801357f2fe520ad2020aab9cbba817fcbb9a863b8a76ff88f14f912c5e71665b2ad5e827f2b5f494ed674235b8ac1750bdfd5a7615f002d4a1dcefeddd06eda5a076ccd0d846102bb565b61050360808801357f214bfcff74f425f6fe8c0d07b307482d8bc8bb2f3608f68287aa01bd0b69e8097f0f1c3c0d5d9da0fa03666843cde4e82e869ba5252fce3c25d5940320b1c4d493846102bb565b50823581527f30644e72e131a029b85045b68181585d97816a916871ca8d3c208c16d87cfd4760208401357f30644e72e131a029b85045b68181585d97816a916871ca8d3c208c16d87cfd4703066020820152833560408201526020840135606082015260408401356080820152606084013560a08201527f2d4d9aa7e302d9df41749d5507949d05dbea33fbb16c643b22f599a2be6df2e260c08201527f14bedd503c37ceb061d8ec60209fe345ce89830a19230301f076caff004d192660e08201527f0967032fcbf776d1afc985f88877f182d38480a653f2decaa9794cbc3bf3060c6101008201527f0e187847ad4c798374d0d6732bf501847dd68bc0e071241e0213bc7fc13db7ab6101208201527f304cfbd1e08a704a99f5e847d93f8c3caafddec46b7a0d379da69a4d112346a76101408201527f1739c1b1a457a8c7313123d24d2f9192f896b7c63eea05a9d57f06547ad0cec8610160820152600087015161018082015260206000018701516101a08201527f198e9393920d483a7260bfb731fb5d25f1aa493335a9e71297e485b7aef312c26101c08201527f1800deef121f1e76426a00665e5c4479674322d4f75edadd46debd5cd992f6ed6101e08201527f090689d0585ff075ec9e99ad690c3395bc4b313370b38ef355acdadcd122975b6102008201527f12c85ea5db8c6deb4aab71808dcb408fe3d1e7690c43d37b4ce6cc0166fa7daa610220820152843561024082015260208501356102608201527f2699859097a173884cfec7dc736e2bd369bbc934bc05db4a9788611af01cb9a76102808201527f254149815fc34ac37ed6722cee910217da80d23a028a0d9d27f5c9a1761e4f236102a08201527f2458dcd9a7418005125b7331e219bce8f256259c5570dc08ff108e37a0eace146102c08201527f2cebf57597af064d7997d6a29db942d43a4461f103f9f4a9da037a8c7f9f88e26102e08201526020816103008360086107d05a03fa9051169695505050505050565b60405161038081016040526107fb6000840135610287565b6108086020840135610287565b6108156040840135610287565b6108226060840135610287565b61082f6080840135610287565b61083c60a0840135610287565b610849818486888a610326565b90508060005260206000f35b6040805160606020601f88018190040282018101835291810186815260009283929182918a908a9081908501838280828437600092018290525093855250506040805160a0810182528a815260208082018b905282518084018452858152808201869052828401526060820185905282518084019093528983528281019490945292909301926080830191506108ea90610bd0565b90529052506001979650505050505050565b6000600280604051610926907172697363302e52656365697074436c61696d60701b815260120190565b602060405180830381855afa158015610943573d6000803e3d6000fd5b5050506040513d601f19601f82011682018060405250810190610966919061117e565b6060840151845160208601516080870151604088015151601890600281111561099157610991611168565b60408a810151602090810151825191820199909952908101969096526060860194909452608085019290925260a084015263ffffffff909116901b60e01b6001600160e01b03191660c082015260f89190911b6001600160f81b03191660c4820152600160fa1b60c882015260ca015b60408051601f1981840301815290829052610a1b91611197565b602060405180830381855afa158015610a38573d6000803e3d6000fd5b5050506040513d601f19601f82011682018060405250810190610a5b919061117e565b92915050565b60008080610bae8460008190506008817eff00ff00ff00ff00ff00ff00ff00ff00ff00ff00ff00ff00ff00ff00ff00ff16901b6008827fff00ff00ff00ff00ff00ff00ff00ff00ff00ff00ff00ff00ff00ff00ff00ff0016901c1790506010817dffff0000ffff0000ffff0000ffff0000ffff0000ffff0000ffff0000ffff16901b6010827fffff0000ffff0000ffff0000ffff0000ffff0000ffff0000ffff0000ffff000016901c1790506020817bffffffff00000000ffffffff00000000ffffffff00000000ffffffff16901b6020827fffffffff00000000ffffffff00000000ffffffff00000000ffffffff0000000016901c17905060408177ffffffffffffffff0000000000000000ffffffffffffffff16901b60408277ffffffffffffffff0000000000000000ffffffffffffffff1916901c179050608081901b608082901c179050919050565b6fffffffffffffffffffffffffffffffff81169560809190911c945092505050565b6000600280604051610bf4906b1c9a5cd8cc0b93dd5d1c1d5d60a21b8152600c0190565b602060405180830381855afa158015610c11573d6000803e3d6000fd5b5050506040513d601f19601f82011682018060405250810190610c34919061117e565b83516020808601516040805192830194909452928101919091526060810191909152600160f91b6080820152608201610a01565b634e487b7160e01b600052604160045260246000fd5b60405160a0810167ffffffffffffffff81118282101715610ca157610ca1610c68565b60405290565b6040805190810167ffffffffffffffff81118282101715610ca157610ca1610c68565b6040516060810167ffffffffffffffff81118282101715610ca157610ca1610c68565b604051601f8201601f1916810167ffffffffffffffff81118282101715610d1657610d16610c68565b604052919050565b600081830360c0811215610d3157600080fd5b610d39610c7e565b915082358252602083013560208301526040603f1982011215610d5b57600080fd5b50610d64610ca7565b604083013560038110610d7657600080fd5b8152606083013560ff81168114610d8c57600080fd5b80602083015250806040830152506080820135606082015260a0820135608082015292915050565b60006020808385031215610dc757600080fd5b823567ffffffffffffffff80821115610ddf57600080fd5b9084019060e08287031215610df357600080fd5b610dfb610ca7565b823582811115610e0a57600080fd5b8301601f81018813610e1b57600080fd5b803583811115610e2d57610e2d610c68565b610e3f601f8201601f19168701610ced565b93508084528886828401011115610e5557600080fd5b8086830187860137600090840186015250818152610e7587848601610d1e565b848201528094505050505092915050565b8060408101831015610a5b57600080fd5b6000806000806101a0808688031215610eaf57600080fd5b610eb98787610e86565b945060c0860187811115610ecc57600080fd5b604087019450610edc8882610e86565b935050868187011115610eee57600080fd5b50929591945092610100019150565b600080600080600060808688031215610f1557600080fd5b853567ffffffffffffffff80821115610f2d57600080fd5b818801915088601f830112610f4157600080fd5b813581811115610f5057600080fd5b896020828501011115610f6257600080fd5b60209283019a909950918801359760408101359750606001359550909350505050565b600082601f830112610f9657600080fd5b610f9e610ca7565b806040840185811115610fb057600080fd5b845b81811015610fca578051845260209384019301610fb2565b509095945050505050565b60006101008284031215610fe857600080fd5b610ff0610cca565b610ffa8484610f85565b8152604084605f85011261100d57600080fd5b611015610ca7565b8060c086018781111561102757600080fd5b8387015b8181101561104c5761103d8982610f85565b8452602090930192840161102b565b5081602086015261105d8882610f85565b84860152505050508091505092915050565b8060005b6002811015611092578151845260209384019390910190600101611073565b50505050565b6101a081016110a7828761106f565b60408083018660005b60028082106110bf57506110fa565b82518460005b838110156110e35782518252602092830192909101906001016110c5565b5050509284019250602091909101906001016110b0565b5050505061110b60c083018561106f565b61010082018360005b6005811015611133578151835260209283019290910190600101611114565b50505095945050505050565b60006020828403121561115157600080fd5b8151801515811461116157600080fd5b9392505050565b634e487b7160e01b600052602160045260246000fd5b60006020828403121561119057600080fd5b5051919050565b6000825160005b818110156111b8576020818601810151858301520161119e565b50600092019182525091905056fea2646970667358221220ff3690678e2652e430d66de4f2823469b680cae10f3c845f639260cf005be61764736f6c63430008150033","linkReferences":{}},"methodIdentifiers":{"allowance(address,address)":"dd62ed3e","approve(address,uint256)":"095ea7b3","balanceOf(address)":"70a08231","decimals()":"313ce567","decreaseAllowance(address,uint256)":"a457c2d7","increaseAllowance(address,uint256)":"39509351","mintWithRiscZeroProof(bytes,bytes32,bytes32,bytes)":"b28c2b4a","name()":"06fdde03","symbol()":"95d89b41","totalSupply()":"18160ddd","transfer(address,uint256)":"a9059cbb","transferFrom(address,address,uint256)":"23b872dd","unwrapNativeEther(uint256)":"6b3f3bf8","wrapNativeEther()":"4a0dcff4"},"id":20}