{"abi":[{"type":"constructor","inputs":[],"stateMutability":"nonpayable"},{"type":"receive","stateMutability":"payable"},{"type":"function","name":"allowance","inputs":[{"name":"owner","type":"address","internalType":"address"},{"name":"spender","type":"address","internalType":"address"}],"outputs":[{"name":"","type":"uint256","internalType":"uint256"}],"stateMutability":"view"},{"type":"function","name":"approve","inputs":[{"name":"spender","type":"address","internalType":"address"},{"name":"amount","type":"uint256","internalType":"uint256"}],"outputs":[{"name":"","type":"bool","internalType":"bool"}],"stateMutability":"nonpayable"},{"type":"function","name":"balanceOf","inputs":[{"name":"account","type":"address","internalType":"address"}],"outputs":[{"name":"","type":"uint256","internalType":"uint256"}],"stateMutability":"view"},{"type":"function","name":"decimals","inputs":[],"outputs":[{"name":"","type":"uint8","internalType":"uint8"}],"stateMutability":"view"},{"type":"function","name":"decreaseAllowance","inputs":[{"name":"spender","type":"address","internalType":"address"},{"name":"subtractedValue","type":"uint256","internalType":"uint256"}],"outputs":[{"name":"","type":"bool","internalType":"bool"}],"stateMutability":"nonpayable"},{"type":"function","name":"increaseAllowance","inputs":[{"name":"spender","type":"address","internalType":"address"},{"name":"addedValue","type":"uint256","internalType":"uint256"}],"outputs":[{"name":"","type":"bool","internalType":"bool"}],"stateMutability":"nonpayable"},{"type":"function","name":"mintWithRiscZeroProof","inputs":[{"name":"seal","type":"bytes","internalType":"bytes"},{"name":"imageId","type":"bytes32","internalType":"bytes32"},{"name":"postStateDigest","type":"bytes32","internalType":"bytes32"},{"name":"journal","type":"bytes","internalType":"bytes"}],"outputs":[],"stateMutability":"nonpayable"},{"type":"function","name":"name","inputs":[],"outputs":[{"name":"","type":"string","internalType":"string"}],"stateMutability":"view"},{"type":"function","name":"symbol","inputs":[],"outputs":[{"name":"","type":"string","internalType":"string"}],"stateMutability":"view"},{"type":"function","name":"totalSupply","inputs":[],"outputs":[{"name":"","type":"uint256","internalType":"uint256"}],"stateMutability":"view"},{"type":"function","name":"transfer","inputs":[{"name":"to","type":"address","internalType":"address"},{"name":"value","type":"uint256","internalType":"uint256"}],"outputs":[{"name":"","type":"bool","internalType":"bool"}],"stateMutability":"nonpayable"},{"type":"function","name":"transferFrom","inputs":[{"name":"from","type":"address","internalType":"address"},{"name":"to","type":"address","internalType":"address"},{"name":"value","type":"uint256","internalType":"uint256"}],"outputs":[{"name":"","type":"bool","internalType":"bool"}],"stateMutability":"nonpayable"},{"type":"event","name":"Approval","inputs":[{"name":"owner","type":"address","indexed":true,"internalType":"address"},{"name":"spender","type":"address","indexed":true,"internalType":"address"},{"name":"value","type":"uint256","indexed":false,"internalType":"uint256"}],"anonymous":false},{"type":"event","name":"Transfer","inputs":[{"name":"from","type":"address","indexed":true,"internalType":"address"},{"name":"to","type":"address","indexed":true,"internalType":"address"},{"name":"value","type":"uint256","indexed":false,"internalType":"uint256"}],"anonymous":false}],"bytecode":{"object":"0x60806040523480156200001157600080fd5b506040518060400160405280601281526020017127a6a724902ba920a82822a21022aa2422a960711b815250604051806040016040528060058152602001640deae8aa8960db1b81525081600390816200006c919062000183565b5060046200007b828262000183565b5050506040516200008c90620000d0565b604051809103906000f080158015620000a9573d6000803e3d6000fd5b50600580546001600160a01b0319166001600160a01b03929092169190911790556200024f565b6112a38062000d0083390190565b634e487b7160e01b600052604160045260246000fd5b600181811c908216806200010957607f821691505b6020821081036200012a57634e487b7160e01b600052602260045260246000fd5b50919050565b601f8211156200017e57600081815260208120601f850160051c81016020861015620001595750805b601f850160051c820191505b818110156200017a5782815560010162000165565b5050505b505050565b81516001600160401b038111156200019f576200019f620000de565b620001b781620001b08454620000f4565b8462000130565b602080601f831160018114620001ef5760008415620001d65750858301515b600019600386901b1c1916600185901b1785556200017a565b600085815260208120601f198616915b828110156200022057888601518255948401946001909101908401620001ff565b50858210156200023f5787850151600019600388901b60f8161c191681555b5050505050600190811b01905550565b610aa1806200025f6000396000f3fe6080604052600436106100ab5760003560e01c806370a082311161006457806370a082311461018857806395d89b41146101be578063a457c2d7146101d3578063a9059cbb146101f3578063b28c2b4a1461020e578063dd62ed3e1461023057600080fd5b806306fdde03146100b7578063095ea7b3146100e257806318160ddd1461011257806323b872dd14610131578063313ce5671461014c578063395093511461016857600080fd5b366100b257005b600080fd5b3480156100c357600080fd5b506100cc610250565b6040516100d9919061071d565b60405180910390f35b3480156100ee57600080fd5b506101026100fd36600461076c565b6102e2565b60405190151581526020016100d9565b34801561011e57600080fd5b506002545b6040519081526020016100d9565b34801561013d57600080fd5b506101026100b2366004610796565b34801561015857600080fd5b50604051601281526020016100d9565b34801561017457600080fd5b5061010261018336600461076c565b6102fc565b34801561019457600080fd5b506101236101a33660046107d2565b6001600160a01b031660009081526020819052604090205490565b3480156101ca57600080fd5b506100cc61031e565b3480156101df57600080fd5b506101026101ee36600461076c565b61032d565b3480156101ff57600080fd5b506101026100b236600461076c565b34801561021a57600080fd5b5061022e610229366004610897565b6103b8565b005b34801561023c57600080fd5b5061012361024b36600461093f565b6104de565b60606003805461025f90610972565b80601f016020809104026020016040519081016040528092919081815260200182805461028b90610972565b80156102d85780601f106102ad576101008083540402835291602001916102d8565b820191906000526020600020905b8154815290600101906020018083116102bb57829003601f168201915b5050505050905090565b6000336102f0818585610509565b60019150505b92915050565b6000336102f081858561030f83836104de565b61031991906109ac565b610509565b60606004805461025f90610972565b6000338161033b82866104de565b9050838110156103a05760405162461bcd60e51b815260206004820152602560248201527f45524332303a2064656372656173656420616c6c6f77616e63652062656c6f77604482015264207a65726f60d81b60648201526084015b60405180910390fd5b6103ad8286868403610509565b506001949350505050565b600560009054906101000a90046001600160a01b03166001600160a01b0316636efef009868686866002876040516103f091906109cd565b602060405180830381855afa15801561040d573d6000803e3d6000fd5b5050506040513d601f19601f8201168201806040525081019061043091906109e9565b6040518663ffffffff1660e01b8152600401610450959493929190610a02565b602060405180830381865afa15801561046d573d6000803e3d6000fd5b505050506040513d601f19601f820116820180604052508101906104919190610a49565b6104cd5760405162461bcd60e51b815260206004820152600d60248201526c24b73b30b634b210383937b7b360991b6044820152606401610397565b6104d7600161062d565b5050505050565b6001600160a01b03918216600090815260016020908152604080832093909416825291909152205490565b6001600160a01b03831661056b5760405162461bcd60e51b8152602060048201526024808201527f45524332303a20617070726f76652066726f6d20746865207a65726f206164646044820152637265737360e01b6064820152608401610397565b6001600160a01b0382166105cc5760405162461bcd60e51b815260206004820152602260248201527f45524332303a20617070726f766520746f20746865207a65726f206164647265604482015261737360f01b6064820152608401610397565b6001600160a01b0383811660008181526001602090815260408083209487168084529482529182902085905590518481527f8c5be1e5ebec7d5bd14f71427d1e84f3dd0314c0f7b2291e5b200ac8c7c3b925910160405180910390a3505050565b610637338261063a565b50565b6001600160a01b0382166106905760405162461bcd60e51b815260206004820152601f60248201527f45524332303a206d696e7420746f20746865207a65726f2061646472657373006044820152606401610397565b80600260008282546106a291906109ac565b90915550506001600160a01b038216600081815260208181526040808320805486019055518481527fddf252ad1be2c89b69c2b068fc378daa952ba7f163c4a11628f55a4df523b3ef910160405180910390a35050565b60005b838110156107145781810151838201526020016106fc565b50506000910152565b602081526000825180602084015261073c8160408501602087016106f9565b601f01601f19169190910160400192915050565b80356001600160a01b038116811461076757600080fd5b919050565b6000806040838503121561077f57600080fd5b61078883610750565b946020939093013593505050565b6000806000606084860312156107ab57600080fd5b6107b484610750565b92506107c260208501610750565b9150604084013590509250925092565b6000602082840312156107e457600080fd5b6107ed82610750565b9392505050565b634e487b7160e01b600052604160045260246000fd5b600082601f83011261081b57600080fd5b813567ffffffffffffffff80821115610836576108366107f4565b604051601f8301601f19908116603f0116810190828211818310171561085e5761085e6107f4565b8160405283815286602085880101111561087757600080fd5b836020870160208301376000602085830101528094505050505092915050565b6000806000806000608086880312156108af57600080fd5b853567ffffffffffffffff808211156108c757600080fd5b818801915088601f8301126108db57600080fd5b8135818111156108ea57600080fd5b8960208285010111156108fc57600080fd5b602092830197509550908701359350604087013592506060870135908082111561092557600080fd5b506109328882890161080a565b9150509295509295909350565b6000806040838503121561095257600080fd5b61095b83610750565b915061096960208401610750565b90509250929050565b600181811c9082168061098657607f821691505b6020821081036109a657634e487b7160e01b600052602260045260246000fd5b50919050565b808201808211156102f657634e487b7160e01b600052601160045260246000fd5b600082516109df8184602087016106f9565b9190910192915050565b6000602082840312156109fb57600080fd5b5051919050565b60808152846080820152848660a0830137600060a08683010152600060a0601f19601f88011683010190508460208301528360408301528260608301529695505050505050565b600060208284031215610a5b57600080fd5b815180151581146107ed57600080fdfea264697066735822122072339ce66061da6f6c0a3826e7881d08eb22bb1834eb799441001f058cf6a66364736f6c6343000815003360e060405234801561001057600080fd5b506f51a3d73938c3681118ba0a2549f7c1886080526f44f39e6e6cef91de6d743e7f5b7a1e6760a0527f10ff834dbef62ccbba201ecd26a772e3036a075aacbaf47200679a11dcdcf10d60c05260805160a05160c05161120461009f6000396000818160c901526101f501526000818161011601526101c3015260008181606c015261019d01526112046000f3fe608060405234801561001057600080fd5b50600436106100625760003560e01c8063168b1146146100675780631bb8068f146100a1578063258038e2146100c457806334baeab9146100eb5780636efef009146100fe57806386039a3114610111575b600080fd5b61008e7f000000000000000000000000000000000000000000000000000000000000000081565b6040519081526020015b60405180910390f35b6100b46100af366004610dbc565b610138565b6040519015158152602001610098565b61008e7f000000000000000000000000000000000000000000000000000000000000000081565b6100b46100f9366004610e9f565b610280565b6100b461010c366004610f05565b610855565b61008e7f000000000000000000000000000000000000000000000000000000000000000081565b600080600061015261014d8560200151610904565b610a69565b91509150600084600001518060200190518101906101709190610fdd565b9050306001600160a01b03166334baeab98260000151836020015184604001516040518060a001604052807f000000000000000000000000000000000000000000000000000000000000000081526020017f000000000000000000000000000000000000000000000000000000000000000081526020018981526020018881526020017f00000000000000000000000000000000000000000000000000000000000000008152506040518563ffffffff1660e01b815260040161023694939291906110a0565b602060405180830381865afa158015610253573d6000803e3d6000fd5b505050506040513d601f19601f820116820180604052508101906102779190611147565b95945050505050565b60006107e3565b7f30644e72e131a029b85045b68181585d97816a916871ca8d3c208c16d87cfd4781106102b8576000805260206000f35b50565b600060405183815284602082015285604082015260408160608360076107d05a03fa9150816102ee576000805260206000f35b825160408201526020830151606082015260408360808360066107d05a03fa9150508061031f576000805260206000f35b5050505050565b7f12ac9a25dcd5e1a832a9061a082c15dd1d61aa9c4d553505739d0f5d65dc3be485527f025aa744581ebe7ad91731911c898569106ff5a2d30f3eee2b23c60ee980acd46020860152600060808601866103c387357f2e32a094b7589554f7bc357bf63481acd2d55555c203383782a4650787ff66427f0707b920bc978c02f292fae2036e057be54294114ccc3c8769d883f688a1423f846102bb565b61041360208801357f2ede7c9acf48cf3a3729fa3d68714e2a8435d4fa6db8f7f409c153b1fcdf9b8b7f0bca36e2cbe6394b3e249751853f961511011c7148e336f4fd974644850fc347846102bb565b61046360408801357f2b91a26aa92e1b6f5722949f192a81c850d586d81a60157f3e9cf04f679cccd67f1b8af999dbfbb3927c091cc2aaf201e488cbacc3e2c6b6fb5a25f9112e04f2a7846102bb565b6104b360608801357f2fe520ad2020aab9cbba817fcbb9a863b8a76ff88f14f912c5e71665b2ad5e827f2b5f494ed674235b8ac1750bdfd5a7615f002d4a1dcefeddd06eda5a076ccd0d846102bb565b61050360808801357f214bfcff74f425f6fe8c0d07b307482d8bc8bb2f3608f68287aa01bd0b69e8097f0f1c3c0d5d9da0fa03666843cde4e82e869ba5252fce3c25d5940320b1c4d493846102bb565b50823581527f30644e72e131a029b85045b68181585d97816a916871ca8d3c208c16d87cfd4760208401357f30644e72e131a029b85045b68181585d97816a916871ca8d3c208c16d87cfd4703066020820152833560408201526020840135606082015260408401356080820152606084013560a08201527f2d4d9aa7e302d9df41749d5507949d05dbea33fbb16c643b22f599a2be6df2e260c08201527f14bedd503c37ceb061d8ec60209fe345ce89830a19230301f076caff004d192660e08201527f0967032fcbf776d1afc985f88877f182d38480a653f2decaa9794cbc3bf3060c6101008201527f0e187847ad4c798374d0d6732bf501847dd68bc0e071241e0213bc7fc13db7ab6101208201527f304cfbd1e08a704a99f5e847d93f8c3caafddec46b7a0d379da69a4d112346a76101408201527f1739c1b1a457a8c7313123d24d2f9192f896b7c63eea05a9d57f06547ad0cec8610160820152600087015161018082015260206000018701516101a08201527f198e9393920d483a7260bfb731fb5d25f1aa493335a9e71297e485b7aef312c26101c08201527f1800deef121f1e76426a00665e5c4479674322d4f75edadd46debd5cd992f6ed6101e08201527f090689d0585ff075ec9e99ad690c3395bc4b313370b38ef355acdadcd122975b6102008201527f12c85ea5db8c6deb4aab71808dcb408fe3d1e7690c43d37b4ce6cc0166fa7daa610220820152843561024082015260208501356102608201527f2699859097a173884cfec7dc736e2bd369bbc934bc05db4a9788611af01cb9a76102808201527f254149815fc34ac37ed6722cee910217da80d23a028a0d9d27f5c9a1761e4f236102a08201527f2458dcd9a7418005125b7331e219bce8f256259c5570dc08ff108e37a0eace146102c08201527f2cebf57597af064d7997d6a29db942d43a4461f103f9f4a9da037a8c7f9f88e26102e08201526020816103008360086107d05a03fa9051169695505050505050565b60405161038081016040526107fb6000840135610287565b6108086020840135610287565b6108156040840135610287565b6108226060840135610287565b61082f6080840135610287565b61083c60a0840135610287565b610849818486888a610326565b90508060005260206000f35b6040805160606020601f88018190040282018101835291810186815260009283929182918a908a9081908501838280828437600092018290525093855250506040805160a0810182528a815260208082018b905282518084018452858152808201869052828401526060820185905282518084019093528983528281019490945292909301926080830191506108ea90610bd8565b9052905290506108f981610138565b979650505050505050565b600060028060405161092e907172697363302e52656365697074436c61696d60701b815260120190565b602060405180830381855afa15801561094b573d6000803e3d6000fd5b5050506040513d601f19601f8201168201806040525081019061096e9190611186565b6060840151845160208601516080870151604088015151601890600281111561099957610999611170565b60408a810151602090810151825191820199909952908101969096526060860194909452608085019290925260a084015263ffffffff909116901b60e01b6001600160e01b03191660c082015260f89190911b6001600160f81b03191660c4820152600160fa1b60c882015260ca015b60408051601f1981840301815290829052610a239161119f565b602060405180830381855afa158015610a40573d6000803e3d6000fd5b5050506040513d601f19601f82011682018060405250810190610a639190611186565b92915050565b60008080610bb68460008190506008817eff00ff00ff00ff00ff00ff00ff00ff00ff00ff00ff00ff00ff00ff00ff00ff16901b6008827fff00ff00ff00ff00ff00ff00ff00ff00ff00ff00ff00ff00ff00ff00ff00ff0016901c1790506010817dffff0000ffff0000ffff0000ffff0000ffff0000ffff0000ffff0000ffff16901b6010827fffff0000ffff0000ffff0000ffff0000ffff0000ffff0000ffff0000ffff000016901c1790506020817bffffffff00000000ffffffff00000000ffffffff00000000ffffffff16901b6020827fffffffff00000000ffffffff00000000ffffffff00000000ffffffff0000000016901c17905060408177ffffffffffffffff0000000000000000ffffffffffffffff16901b60408277ffffffffffffffff0000000000000000ffffffffffffffff1916901c179050608081901b608082901c179050919050565b6fffffffffffffffffffffffffffffffff81169560809190911c945092505050565b6000600280604051610bfc906b1c9a5cd8cc0b93dd5d1c1d5d60a21b8152600c0190565b602060405180830381855afa158015610c19573d6000803e3d6000fd5b5050506040513d601f19601f82011682018060405250810190610c3c9190611186565b83516020808601516040805192830194909452928101919091526060810191909152600160f91b6080820152608201610a09565b634e487b7160e01b600052604160045260246000fd5b60405160a0810167ffffffffffffffff81118282101715610ca957610ca9610c70565b60405290565b6040805190810167ffffffffffffffff81118282101715610ca957610ca9610c70565b6040516060810167ffffffffffffffff81118282101715610ca957610ca9610c70565b604051601f8201601f1916810167ffffffffffffffff81118282101715610d1e57610d1e610c70565b604052919050565b600081830360c0811215610d3957600080fd5b610d41610c86565b915082358252602083013560208301526040603f1982011215610d6357600080fd5b50610d6c610caf565b604083013560038110610d7e57600080fd5b8152606083013560ff81168114610d9457600080fd5b80602083015250806040830152506080820135606082015260a0820135608082015292915050565b60006020808385031215610dcf57600080fd5b823567ffffffffffffffff80821115610de757600080fd5b9084019060e08287031215610dfb57600080fd5b610e03610caf565b823582811115610e1257600080fd5b8301601f81018813610e2357600080fd5b803583811115610e3557610e35610c70565b610e47601f8201601f19168701610cf5565b93508084528886828401011115610e5d57600080fd5b8086830187860137600090840186015250818152610e7d87848601610d26565b848201528094505050505092915050565b8060408101831015610a6357600080fd5b6000806000806101a0808688031215610eb757600080fd5b610ec18787610e8e565b945060c0860187811115610ed457600080fd5b604087019450610ee48882610e8e565b935050868187011115610ef657600080fd5b50929591945092610100019150565b600080600080600060808688031215610f1d57600080fd5b853567ffffffffffffffff80821115610f3557600080fd5b818801915088601f830112610f4957600080fd5b813581811115610f5857600080fd5b896020828501011115610f6a57600080fd5b60209283019a909950918801359760408101359750606001359550909350505050565b600082601f830112610f9e57600080fd5b610fa6610caf565b806040840185811115610fb857600080fd5b845b81811015610fd2578051845260209384019301610fba565b509095945050505050565b60006101008284031215610ff057600080fd5b610ff8610cd2565b6110028484610f8d565b8152604084605f85011261101557600080fd5b61101d610caf565b8060c086018781111561102f57600080fd5b8387015b81811015611054576110458982610f8d565b84526020909301928401611033565b508160208601526110658882610f8d565b84860152505050508091505092915050565b8060005b600281101561109a57815184526020938401939091019060010161107b565b50505050565b6101a081016110af8287611077565b60408083018660005b60028082106110c75750611102565b82518460005b838110156110eb5782518252602092830192909101906001016110cd565b5050509284019250602091909101906001016110b8565b5050505061111360c0830185611077565b61010082018360005b600581101561113b57815183526020928301929091019060010161111c565b50505095945050505050565b60006020828403121561115957600080fd5b8151801515811461116957600080fd5b9392505050565b634e487b7160e01b600052602160045260246000fd5b60006020828403121561119857600080fd5b5051919050565b6000825160005b818110156111c057602081860181015185830152016111a6565b50600092019182525091905056fea2646970667358221220880611c97686741a116a6b5248d727e5cc929d8c67125b3c53d1bd3f81bce5aa64736f6c63430008150033","linkReferences":{}},"methodIdentifiers":{"allowance(address,address)":"dd62ed3e","approve(address,uint256)":"095ea7b3","balanceOf(address)":"70a08231","decimals()":"313ce567","decreaseAllowance(address,uint256)":"a457c2d7","increaseAllowance(address,uint256)":"39509351","mintWithRiscZeroProof(bytes,bytes32,bytes32,bytes)":"b28c2b4a","name()":"06fdde03","symbol()":"95d89b41","totalSupply()":"18160ddd","transfer(address,uint256)":"a9059cbb","transferFrom(address,address,uint256)":"23b872dd"},"id":20}