{"abi":[{"type":"constructor","inputs":[],"stateMutability":"nonpayable"},{"type":"function","name":"BN254_CONTROL_ID","inputs":[],"outputs":[{"name":"","type":"uint256","internalType":"uint256"}],"stateMutability":"view"},{"type":"function","name":"CONTROL_ID_0","inputs":[],"outputs":[{"name":"","type":"uint256","internalType":"uint256"}],"stateMutability":"view"},{"type":"function","name":"CONTROL_ID_1","inputs":[],"outputs":[{"name":"","type":"uint256","internalType":"uint256"}],"stateMutability":"view"},{"type":"function","name":"verify","inputs":[{"name":"seal","type":"bytes","internalType":"bytes"},{"name":"imageId","type":"bytes32","internalType":"bytes32"},{"name":"postStateDigest","type":"bytes32","internalType":"bytes32"},{"name":"journalDigest","type":"bytes32","internalType":"bytes32"}],"outputs":[{"name":"","type":"bool","internalType":"bool"}],"stateMutability":"view"},{"type":"function","name":"verifyProof","inputs":[{"name":"_pA","type":"uint256[2]","internalType":"uint256[2]"},{"name":"_pB","type":"uint256[2][2]","internalType":"uint256[2][2]"},{"name":"_pC","type":"uint256[2]","internalType":"uint256[2]"},{"name":"_pubSignals","type":"uint256[5]","internalType":"uint256[5]"}],"outputs":[{"name":"","type":"bool","internalType":"bool"}],"stateMutability":"view"},{"type":"function","name":"verify_integrity","inputs":[{"name":"receipt","type":"tuple","internalType":"struct Receipt","components":[{"name":"seal","type":"bytes","internalType":"bytes"},{"name":"claim","type":"tuple","internalType":"struct ReceiptClaim","components":[{"name":"preStateDigest","type":"bytes32","internalType":"bytes32"},{"name":"postStateDigest","type":"bytes32","internalType":"bytes32"},{"name":"exitCode","type":"tuple","internalType":"struct ExitCode","components":[{"name":"system","type":"uint8","internalType":"enum SystemExitCode"},{"name":"user","type":"uint8","internalType":"uint8"}]},{"name":"input","type":"bytes32","internalType":"bytes32"},{"name":"output","type":"bytes32","internalType":"bytes32"}]}]}],"outputs":[{"name":"","type":"bool","internalType":"bool"}],"stateMutability":"view"}],"bytecode":{"object":"0x60e060405234801561001057600080fd5b506f51a3d73938c3681118ba0a2549f7c1886080526f44f39e6e6cef91de6d743e7f5b7a1e6760a0527f10ff834dbef62ccbba201ecd26a772e3036a075aacbaf47200679a11dcdcf10d60c05260805160a05160c0516111fc61009f6000396000818160c901526101f501526000818161011601526101c3015260008181606c015261019d01526111fc6000f3fe608060405234801561001057600080fd5b50600436106100625760003560e01c8063168b1146146100675780631bb8068f146100a1578063258038e2146100c457806334baeab9146100eb5780636efef009146100fe57806386039a3114610111575b600080fd5b61008e7f000000000000000000000000000000000000000000000000000000000000000081565b6040519081526020015b60405180910390f35b6100b46100af366004610db4565b610138565b6040519015158152602001610098565b61008e7f000000000000000000000000000000000000000000000000000000000000000081565b6100b46100f9366004610e97565b610280565b6100b461010c366004610efd565b610855565b61008e7f000000000000000000000000000000000000000000000000000000000000000081565b600080600061015261014d85602001516108fc565b610a61565b91509150600084600001518060200190518101906101709190610fd5565b9050306001600160a01b03166334baeab98260000151836020015184604001516040518060a001604052807f000000000000000000000000000000000000000000000000000000000000000081526020017f000000000000000000000000000000000000000000000000000000000000000081526020018981526020018881526020017f00000000000000000000000000000000000000000000000000000000000000008152506040518563ffffffff1660e01b81526004016102369493929190611098565b602060405180830381865afa158015610253573d6000803e3d6000fd5b505050506040513d601f19601f82011682018060405250810190610277919061113f565b95945050505050565b60006107e3565b7f30644e72e131a029b85045b68181585d97816a916871ca8d3c208c16d87cfd4781106102b8576000805260206000f35b50565b600060405183815284602082015285604082015260408160608360076107d05a03fa9150816102ee576000805260206000f35b825160408201526020830151606082015260408360808360066107d05a03fa9150508061031f576000805260206000f35b5050505050565b7f12ac9a25dcd5e1a832a9061a082c15dd1d61aa9c4d553505739d0f5d65dc3be485527f025aa744581ebe7ad91731911c898569106ff5a2d30f3eee2b23c60ee980acd46020860152600060808601866103c387357f2e32a094b7589554f7bc357bf63481acd2d55555c203383782a4650787ff66427f0707b920bc978c02f292fae2036e057be54294114ccc3c8769d883f688a1423f846102bb565b61041360208801357f2ede7c9acf48cf3a3729fa3d68714e2a8435d4fa6db8f7f409c153b1fcdf9b8b7f0bca36e2cbe6394b3e249751853f961511011c7148e336f4fd974644850fc347846102bb565b61046360408801357f2b91a26aa92e1b6f5722949f192a81c850d586d81a60157f3e9cf04f679cccd67f1b8af999dbfbb3927c091cc2aaf201e488cbacc3e2c6b6fb5a25f9112e04f2a7846102bb565b6104b360608801357f2fe520ad2020aab9cbba817fcbb9a863b8a76ff88f14f912c5e71665b2ad5e827f2b5f494ed674235b8ac1750bdfd5a7615f002d4a1dcefeddd06eda5a076ccd0d846102bb565b61050360808801357f214bfcff74f425f6fe8c0d07b307482d8bc8bb2f3608f68287aa01bd0b69e8097f0f1c3c0d5d9da0fa03666843cde4e82e869ba5252fce3c25d5940320b1c4d493846102bb565b50823581527f30644e72e131a029b85045b68181585d97816a916871ca8d3c208c16d87cfd4760208401357f30644e72e131a029b85045b68181585d97816a916871ca8d3c208c16d87cfd4703066020820152833560408201526020840135606082015260408401356080820152606084013560a08201527f2d4d9aa7e302d9df41749d5507949d05dbea33fbb16c643b22f599a2be6df2e260c08201527f14bedd503c37ceb061d8ec60209fe345ce89830a19230301f076caff004d192660e08201527f0967032fcbf776d1afc985f88877f182d38480a653f2decaa9794cbc3bf3060c6101008201527f0e187847ad4c798374d0d6732bf501847dd68bc0e071241e0213bc7fc13db7ab6101208201527f304cfbd1e08a704a99f5e847d93f8c3caafddec46b7a0d379da69a4d112346a76101408201527f1739c1b1a457a8c7313123d24d2f9192f896b7c63eea05a9d57f06547ad0cec8610160820152600087015161018082015260206000018701516101a08201527f198e9393920d483a7260bfb731fb5d25f1aa493335a9e71297e485b7aef312c26101c08201527f1800deef121f1e76426a00665e5c4479674322d4f75edadd46debd5cd992f6ed6101e08201527f090689d0585ff075ec9e99ad690c3395bc4b313370b38ef355acdadcd122975b6102008201527f12c85ea5db8c6deb4aab71808dcb408fe3d1e7690c43d37b4ce6cc0166fa7daa610220820152843561024082015260208501356102608201527f2699859097a173884cfec7dc736e2bd369bbc934bc05db4a9788611af01cb9a76102808201527f254149815fc34ac37ed6722cee910217da80d23a028a0d9d27f5c9a1761e4f236102a08201527f2458dcd9a7418005125b7331e219bce8f256259c5570dc08ff108e37a0eace146102c08201527f2cebf57597af064d7997d6a29db942d43a4461f103f9f4a9da037a8c7f9f88e26102e08201526020816103008360086107d05a03fa9051169695505050505050565b60405161038081016040526107fb6000840135610287565b6108086020840135610287565b6108156040840135610287565b6108226060840135610287565b61082f6080840135610287565b61083c60a0840135610287565b610849818486888a610326565b90508060005260206000f35b6040805160606020601f88018190040282018101835291810186815260009283929182918a908a9081908501838280828437600092018290525093855250506040805160a0810182528a815260208082018b905282518084018452858152808201869052828401526060820185905282518084019093528983528281019490945292909301926080830191506108ea90610bd0565b90529052506001979650505050505050565b6000600280604051610926907172697363302e52656365697074436c61696d60701b815260120190565b602060405180830381855afa158015610943573d6000803e3d6000fd5b5050506040513d601f19601f82011682018060405250810190610966919061117e565b6060840151845160208601516080870151604088015151601890600281111561099157610991611168565b60408a810151602090810151825191820199909952908101969096526060860194909452608085019290925260a084015263ffffffff909116901b60e01b6001600160e01b03191660c082015260f89190911b6001600160f81b03191660c4820152600160fa1b60c882015260ca015b60408051601f1981840301815290829052610a1b91611197565b602060405180830381855afa158015610a38573d6000803e3d6000fd5b5050506040513d601f19601f82011682018060405250810190610a5b919061117e565b92915050565b60008080610bae8460008190506008817eff00ff00ff00ff00ff00ff00ff00ff00ff00ff00ff00ff00ff00ff00ff00ff16901b6008827fff00ff00ff00ff00ff00ff00ff00ff00ff00ff00ff00ff00ff00ff00ff00ff0016901c1790506010817dffff0000ffff0000ffff0000ffff0000ffff0000ffff0000ffff0000ffff16901b6010827fffff0000ffff0000ffff0000ffff0000ffff0000ffff0000ffff0000ffff000016901c1790506020817bffffffff00000000ffffffff00000000ffffffff00000000ffffffff16901b6020827fffffffff00000000ffffffff00000000ffffffff00000000ffffffff0000000016901c17905060408177ffffffffffffffff0000000000000000ffffffffffffffff16901b60408277ffffffffffffffff0000000000000000ffffffffffffffff1916901c179050608081901b608082901c179050919050565b6fffffffffffffffffffffffffffffffff81169560809190911c945092505050565b6000600280604051610bf4906b1c9a5cd8cc0b93dd5d1c1d5d60a21b8152600c0190565b602060405180830381855afa158015610c11573d6000803e3d6000fd5b5050506040513d601f19601f82011682018060405250810190610c34919061117e565b83516020808601516040805192830194909452928101919091526060810191909152600160f91b6080820152608201610a01565b634e487b7160e01b600052604160045260246000fd5b60405160a0810167ffffffffffffffff81118282101715610ca157610ca1610c68565b60405290565b6040805190810167ffffffffffffffff81118282101715610ca157610ca1610c68565b6040516060810167ffffffffffffffff81118282101715610ca157610ca1610c68565b604051601f8201601f1916810167ffffffffffffffff81118282101715610d1657610d16610c68565b604052919050565b600081830360c0811215610d3157600080fd5b610d39610c7e565b915082358252602083013560208301526040603f1982011215610d5b57600080fd5b50610d64610ca7565b604083013560038110610d7657600080fd5b8152606083013560ff81168114610d8c57600080fd5b80602083015250806040830152506080820135606082015260a0820135608082015292915050565b60006020808385031215610dc757600080fd5b823567ffffffffffffffff80821115610ddf57600080fd5b9084019060e08287031215610df357600080fd5b610dfb610ca7565b823582811115610e0a57600080fd5b8301601f81018813610e1b57600080fd5b803583811115610e2d57610e2d610c68565b610e3f601f8201601f19168701610ced565b93508084528886828401011115610e5557600080fd5b8086830187860137600090840186015250818152610e7587848601610d1e565b848201528094505050505092915050565b8060408101831015610a5b57600080fd5b6000806000806101a0808688031215610eaf57600080fd5b610eb98787610e86565b945060c0860187811115610ecc57600080fd5b604087019450610edc8882610e86565b935050868187011115610eee57600080fd5b50929591945092610100019150565b600080600080600060808688031215610f1557600080fd5b853567ffffffffffffffff80821115610f2d57600080fd5b818801915088601f830112610f4157600080fd5b813581811115610f5057600080fd5b896020828501011115610f6257600080fd5b60209283019a909950918801359760408101359750606001359550909350505050565b600082601f830112610f9657600080fd5b610f9e610ca7565b806040840185811115610fb057600080fd5b845b81811015610fca578051845260209384019301610fb2565b509095945050505050565b60006101008284031215610fe857600080fd5b610ff0610cca565b610ffa8484610f85565b8152604084605f85011261100d57600080fd5b611015610ca7565b8060c086018781111561102757600080fd5b8387015b8181101561104c5761103d8982610f85565b8452602090930192840161102b565b5081602086015261105d8882610f85565b84860152505050508091505092915050565b8060005b6002811015611092578151845260209384019390910190600101611073565b50505050565b6101a081016110a7828761106f565b60408083018660005b60028082106110bf57506110fa565b82518460005b838110156110e35782518252602092830192909101906001016110c5565b5050509284019250602091909101906001016110b0565b5050505061110b60c083018561106f565b61010082018360005b6005811015611133578151835260209283019290910190600101611114565b50505095945050505050565b60006020828403121561115157600080fd5b8151801515811461116157600080fd5b9392505050565b634e487b7160e01b600052602160045260246000fd5b60006020828403121561119057600080fd5b5051919050565b6000825160005b818110156111b8576020818601810151858301520161119e565b50600092019182525091905056fea2646970667358221220ff3690678e2652e430d66de4f2823469b680cae10f3c845f639260cf005be61764736f6c63430008150033","linkReferences":{}},"methodIdentifiers":{"BN254_CONTROL_ID()":"258038e2","CONTROL_ID_0()":"168b1146","CONTROL_ID_1()":"86039a31","verify(bytes,bytes32,bytes32,bytes32)":"6efef009","verifyProof(uint256[2],uint256[2][2],uint256[2],uint256[5])":"34baeab9","verify_integrity((bytes,(bytes32,bytes32,(uint8,uint8),bytes32,bytes32)))":"1bb8068f"},"id":24}