{"abi":[{"type":"receive","stateMutability":"payable"},{"type":"function","name":"_absoluteModule","inputs":[{"name":"x","type":"int256","internalType":"int256"}],"outputs":[{"name":"","type":"uint256","internalType":"uint256"}],"stateMutability":"pure"},{"type":"function","name":"_buyCount","inputs":[],"outputs":[{"name":"","type":"uint32","internalType":"uint32"}],"stateMutability":"view"},{"type":"function","name":"_calculateOrderPrice","inputs":[{"name":"signedCurrentOrder","type":"int256","internalType":"int256"},{"name":"price","type":"uint256","internalType":"uint256"},{"name":"delta","type":"uint256","internalType":"uint256"},{"name":"isExponential","type":"bool","internalType":"bool"}],"outputs":[{"name":"","type":"uint256","internalType":"uint256"}],"stateMutability":"pure"},{"type":"function","name":"_calculateTotalPrice","inputs":[{"name":"signedCurrentOrder","type":"int256","internalType":"int256"},{"name":"price","type":"uint256","internalType":"uint256"},{"name":"iterations","type":"uint256","internalType":"uint256"},{"name":"delta","type":"uint256","internalType":"uint256"},{"name":"isExponential","type":"bool","internalType":"bool"},{"name":"isSelling","type":"bool","internalType":"bool"}],"outputs":[{"name":"","type":"uint256","internalType":"uint256"}],"stateMutability":"pure"},{"type":"function","name":"_collection","inputs":[],"outputs":[{"name":"","type":"address","internalType":"contract IERC721"}],"stateMutability":"view"},{"type":"function","name":"_initialized","inputs":[],"outputs":[{"name":"","type":"bool","internalType":"bool"}],"stateMutability":"view"},{"type":"function","name":"_owner","inputs":[],"outputs":[{"name":"","type":"address","internalType":"address"}],"stateMutability":"view"},{"type":"function","name":"_parent","inputs":[],"outputs":[{"name":"","type":"address","internalType":"contract YakiSwapMock"}],"stateMutability":"view"},{"type":"function","name":"_signedCurrentOrder","inputs":[],"outputs":[{"name":"","type":"int256","internalType":"int256"}],"stateMutability":"view"},{"type":"function","name":"batchBuyNFT","inputs":[{"name":"tokenId","type":"uint256[]","internalType":"uint256[]"}],"outputs":[],"stateMutability":"nonpayable"},{"type":"function","name":"batchSellNFT","inputs":[{"name":"tokenId","type":"uint256[]","internalType":"uint256[]"}],"outputs":[],"stateMutability":"payable"},{"type":"function","name":"calculateTotalPrice","inputs":[{"name":"iterations","type":"uint256","internalType":"uint256"},{"name":"isSelling","type":"bool","internalType":"bool"}],"outputs":[{"name":"","type":"uint256","internalType":"uint256"}],"stateMutability":"view"},{"type":"function","name":"deposit","inputs":[{"name":"tokenId","type":"uint256[]","internalType":"uint256[]"}],"outputs":[],"stateMutability":"payable"},{"type":"function","name":"getBuyOrders","inputs":[],"outputs":[{"name":"","type":"uint256","internalType":"uint256"}],"stateMutability":"view"},{"type":"function","name":"getBuyPrice","inputs":[],"outputs":[{"name":"","type":"uint256","internalType":"uint256"}],"stateMutability":"view"},{"type":"function","name":"getSellOrders","inputs":[],"outputs":[{"name":"","type":"uint256","internalType":"uint256"}],"stateMutability":"view"},{"type":"function","name":"getSellPrice","inputs":[],"outputs":[{"name":"","type":"uint256","internalType":"uint256"}],"stateMutability":"view"},{"type":"function","name":"getSwapFee","inputs":[],"outputs":[{"name":"","type":"uint256","internalType":"uint256"}],"stateMutability":"view"},{"type":"function","name":"initialize","inputs":[{"name":"owner","type":"address","internalType":"address"},{"name":"collection","type":"address","internalType":"address"}],"outputs":[],"stateMutability":"nonpayable"},{"type":"function","name":"mock_set_buyCount","inputs":[{"name":"n","type":"uint32","internalType":"uint32"}],"outputs":[],"stateMutability":"nonpayable"},{"type":"function","name":"mock_signedCurrentOrder","inputs":[{"name":"n","type":"int256","internalType":"int256"}],"outputs":[],"stateMutability":"nonpayable"},{"type":"function","name":"onERC721Received","inputs":[{"name":"","type":"address","internalType":"address"},{"name":"","type":"address","internalType":"address"},{"name":"","type":"uint256","internalType":"uint256"},{"name":"","type":"bytes","internalType":"bytes"}],"outputs":[{"name":"","type":"bytes4","internalType":"bytes4"}],"stateMutability":"pure"},{"type":"function","name":"properties","inputs":[],"outputs":[{"name":"spotPrice","type":"uint256","internalType":"uint256"},{"name":"delta","type":"uint256","internalType":"uint256"},{"name":"maxBuyOrders","type":"uint16","internalType":"uint16"},{"name":"fee","type":"uint16","internalType":"uint16"},{"name":"isExponential","type":"bool","internalType":"bool"}],"stateMutability":"view"},{"type":"function","name":"setPoolProperties","inputs":[{"name":"spotPrice","type":"uint256","internalType":"uint256"},{"name":"delta","type":"uint256","internalType":"uint256"},{"name":"maxBuyOrders","type":"uint16","internalType":"uint16"},{"name":"fee","type":"uint16","internalType":"uint16"},{"name":"isExponential","type":"bool","internalType":"bool"}],"outputs":[],"stateMutability":"nonpayable"},{"type":"function","name":"swapNFT","inputs":[{"name":"tokenIn","type":"uint256","internalType":"uint256"},{"name":"tokenOut","type":"uint256","internalType":"uint256"}],"outputs":[],"stateMutability":"payable"},{"type":"function","name":"withdraw","inputs":[{"name":"tokenId","type":"uint256[]","internalType":"uint256[]"},{"name":"amount","type":"uint256","internalType":"uint256"}],"outputs":[],"stateMutability":"nonpayable"}],"bytecode":{"object":"0x608060405234801561001057600080fd5b506001600055611d5c806100256000396000f3fe6080604052600436106101855760003560e01c80637dfe59cc116100d1578063d4cadf681161008a578063de8ee99711610064578063de8ee99714610485578063e0c5a277146104a5578063fc898928146104ba578063fcd802b1146104da57600080fd5b8063d4cadf6814610430578063d5294e9014610445578063dbf7cc4f1461046557600080fd5b80637dfe59cc14610365578063880c904a146103855780639473102c146103a5578063a4f95ba0146103b8578063b2bdfa7b146103d8578063b6e41afc1461041057600080fd5b80633072cf601161013e578063598b8e7111610118578063598b8e71146102de57806362f68261146102f157806370f2739e1461031157806372841a691461035257600080fd5b80633072cf601461027857806343d32e9c146102a9578063485cc955146102be57600080fd5b8063018a25e81461019157806314dca602146101b9578063150b7a02146101ce5780631da644021461020757806327b1a8e91461022957806329b800171461026257600080fd5b3661018c57005b600080fd5b34801561019d57600080fd5b506101a6610546565b6040519081526020015b60405180910390f35b3480156101c557600080fd5b506101a66105a8565b3480156101da57600080fd5b506101ee6101e9366004611722565b61061a565b6040516001600160e01b031990911681526020016101b0565b34801561021357600080fd5b506102276102223660046117e0565b610645565b005b34801561023557600080fd5b5060075461024d90600160a01b900463ffffffff1681565b60405163ffffffff90911681526020016101b0565b34801561026e57600080fd5b506101a660045481565b34801561028457600080fd5b5060075461029990600160c01b900460ff1681565b60405190151581526020016101b0565b3480156102b557600080fd5b506101a661076c565b3480156102ca57600080fd5b506102276102d936600461183b565b610793565b6102276102ec3660046118b3565b61082d565b3480156102fd57600080fd5b5061022761030c3660046118f5565b600455565b34801561031d57600080fd5b5061022761032c36600461190e565b6007805463ffffffff909216600160a01b0263ffffffff60a01b19909216919091179055565b61022761036036600461193b565b610986565b34801561037157600080fd5b506102276103803660046118b3565b610b5a565b34801561039157600080fd5b506101a66103a036600461195d565b610e86565b6102276103b33660046118b3565b610ef2565b3480156103c457600080fd5b506101a66103d33660046118f5565b611152565b3480156103e457600080fd5b506005546103f8906001600160a01b031681565b6040516001600160a01b0390911681526020016101b0565b34801561041c57600080fd5b506007546103f8906001600160a01b031681565b34801561043c57600080fd5b506101a661116e565b34801561045157600080fd5b506101a661046036600461198d565b611199565b34801561047157600080fd5b506101a66104803660046119ce565b6112ea565b34801561049157600080fd5b506006546103f8906001600160a01b031681565b3480156104b157600080fd5b506101a6611374565b3480156104c657600080fd5b506102276104d5366004611a2c565b61148f565b3480156104e657600080fd5b5060015460025460035461051592919061ffff8082169162010000810490911690640100000000900460ff1685565b60408051958652602086019490945261ffff928316938501939093521660608301521515608082015260a0016101b0565b6004546001546002546003546000938493610570939192909190640100000000900460ff16611199565b6003549091506103e89061058e9062010000900461ffff1683611a8e565b6105989190611abb565b6105a29082611add565b91505090565b6006546040516370a0823160e01b81523060048201526000916001600160a01b0316906370a0823190602401602060405180830381865afa1580156105f1573d6000803e3d6000fd5b505050506040513d601f19601f820116820180604052508101906106159190611af0565b905090565b7f150b7a023d4804d13e8c85fb27262cb750cf6ba9f9dd3bb30d90f482ceeb4b1f5b95945050505050565b6005546001600160a01b031633148061066857506007546001600160a01b031633145b61068d5760405162461bcd60e51b815260040161068490611b09565b60405180910390fd5b600185905560028490556003805461ffff85811664ffffffffff199092166201000091861691820264ff0000ffff1916178217640100000000851515908102919091179093556007805463ffffffff60a01b198116909155600060049081556040516394d8b6cd60e01b81529081018a9052602481018990526044810193909352606483019190915260848201929092526001600160a01b03909116906394d8b6cd9060a401600060405180830381600087803b15801561074d57600080fd5b505af1158015610761573d6000803e3d6000fd5b505050505050505050565b6004546001546002546003546000936106159390929091640100000000900460ff16611199565b600754600160c01b900460ff16156107e35760405162461bcd60e51b8152602060048201526013602482015272105b1c9958591e481a5b9a5d1a585b1a5e9959606a1b6044820152606401610684565b600580546001600160a01b039384166001600160a01b0319918216179091556006805492909316911617905560078054600164ff0000000160a01b0319163317600160c01b179055565b6005546001600160a01b031633148061085057506007546001600160a01b031633145b61086c5760405162461bcd60e51b815260040161068490611b09565b60005b81811015610919576007546006546005546001600160a01b03928316926346197c9a92811691168686868181106108a8576108a8611b32565b905060200201356040518463ffffffff1660e01b81526004016108cd93929190611b48565b6020604051808303816000875af11580156108ec573d6000803e3d6000fd5b505050506040513d601f19601f820116820180604052508101906109109190611b6c565b5060010161086f565b50600760009054906101000a90046001600160a01b03166001600160a01b0316635600231a6040518163ffffffff1660e01b8152600401600060405180830381600087803b15801561096a57600080fd5b505af115801561097e573d6000803e3d6000fd5b505050505050565b61098e61116e565b34146109d15760405162461bcd60e51b8152602060048201526012602482015271506f6f6c3a2077726f6e67202076616c756560701b6044820152606401610684565b600654604051635c46a7ef60e11b81523060048201523360248201526044810183905260806064820152600060848201526001600160a01b039091169063b88d4fde9060a401600060405180830381600087803b158015610a3157600080fd5b505af1158015610a45573d6000803e3d6000fd5b505060075460065460405163230cbe4d60e11b81526001600160a01b0392831694506346197c9a9350610a82929091169033908790600401611b48565b6020604051808303816000875af1158015610aa1573d6000803e3d6000fd5b505050506040513d601f19601f82011682018060405250810190610ac59190611b6c565b506040805160028082526060820183526000926020830190803683375050600754919250506001600160a01b03166365c0bf1933610b0161116e565b8460026040518563ffffffff1660e01b8152600401610b239493929190611bab565b600060405180830381600087803b158015610b3d57600080fd5b505af1158015610b51573d6000803e3d6000fd5b50505050505050565b610b62611662565b600754610b7d908290600160a01b900463ffffffff16611c0f565b60035461ffff161015610bd25760405162461bcd60e51b815260206004820152601960248201527f506f6f6c3a20627579206f72646572206c696d6974206d6574000000000000006044820152606401610684565b80610c135760405162461bcd60e51b8152602060048201526011602482015270506f6f6c3a20656d70747920617272617960781b6044820152606401610684565b6000610c20826001610e86565b905080471015610c6b5760405162461bcd60e51b8152602060048201526016602482015275506f6f6c3a206e6f7420656e6f7567682066756e647360501b6044820152606401610684565b6003546103e890610c869062010000900461ffff1683611a8e565b610c909190611abb565b610c9a9082611add565b905060005b82811015610d7b576007546006546001600160a01b03918216916346197c9a911633878786818110610cd357610cd3611b32565b905060200201356040518463ffffffff1660e01b8152600401610cf893929190611b48565b6020604051808303816000875af1158015610d17573d6000803e3d6000fd5b505050506040513d601f19601f82011682018060405250810190610d3b9190611b6c565b50600480546000190190556007805463ffffffff600160a01b808304821660019081019092160263ffffffff60a01b199092169190911790915501610c9f565b506007546040516365c0bf1960e01b81526001600160a01b03909116906365c0bf1990610db5903390859088908890600090600401611c22565b600060405180830381600087803b158015610dcf57600080fd5b505af1158015610de3573d6000803e3d6000fd5b50506040516000925033915083908381818185875af1925050503d8060008114610e29576040519150601f19603f3d011682016040523d82523d6000602084013e610e2e565b606091505b5050905080610e765760405162461bcd60e51b81526020600482015260146024820152732330b4b632b2103a379039b2b7321022ba3432b960611b6044820152606401610684565b5050610e826001600055565b5050565b6040805160a0810182526001548082526002546020830181905260035461ffff80821695850195909552620100008104909416606084015264010000000090930460ff16151560808301819052600454600094610ee8939192889190886112ea565b9150505b92915050565b610efa611662565b600154600003610f3b5760405162461bcd60e51b815260206004820152600c60248201526b4e6f7420666f722073616c6560a01b6044820152606401610684565b80610f7c5760405162461bcd60e51b8152602060048201526011602482015270139bc81d1bdad95b881cd95b1958dd1959607a1b6044820152606401610684565b6000610f888282610e86565b9050803414610fc85760405162461bcd60e51b815260206004820152600c60248201526b15dc9bdb99c8185b5bdd5b9d60a21b6044820152606401610684565b60005b828110156110db576006546001600160a01b031663b88d4fde3033878786818110610ff857610ff8611b32565b6040516001600160e01b031960e088901b1681526001600160a01b03958616600482015294909316602485015250602090910201356044820152608060648201526000608482015260a401600060405180830381600087803b15801561105d57600080fd5b505af1158015611071573d6000803e3d6000fd5b5050600754600160a01b900463ffffffff161591506110c990505760078054600160a01b900463ffffffff169060146110a983611c78565b91906101000a81548163ffffffff021916908363ffffffff160217905550505b60048054600190810190915501610fcb565b506007546040516365c0bf1960e01b81526001600160a01b03909116906365c0bf1990611115903390349088908890600190600401611c22565b600060405180830381600087803b15801561112f57600080fd5b505af1158015611143573d6000803e3d6000fd5b5050505050610e826001600055565b60008082121561116a5761116582611c98565b610eec565b5090565b6003546001546000916103e89161118f9162010000900461ffff1690611a8e565b6106159190611abb565b600083816111a687611152565b9050600084156112a65760008812156111e2576111c986655af3107a4000611a8e565b6111db90670de0b6b3a7640000611add565b9050611207565b6111f286655af3107a4000611a8e565b61120490670de0b6b3a7640000611c0f565b90505b811561129b57816001166001036112545760008061122585846116bb565b915091508161123d57600019955050505050506112e2565b61124f670de0b6b3a764000082611abb565b945050505b60008061126183846116bb565b915091508161127957600019955050505050506112e2565b61128b670de0b6b3a764000082611abb565b9250600184901c93505050611207565b8293505050506112e2565b60008812156112ce576112b98683611a8e565b6112c39084611add565b93506112e292505050565b6112d88683611a8e565b6112c39084611c0f565b949350505050565b600080821561132f5760005b868110156113295761130a89898888611199565b6113149083611c0f565b915061131f89611cb4565b98506001016112f6565b50611367565b60005b868110156113655761134689898888611199565b6113509083611c0f565b915061135b89611cd3565b9850600101611332565b505b90505b9695505050505050565b60045460075460035460009283929091600160a01b90910463ffffffff1661ffff90911610806113a8575060035461ffff16155b156113b65760009250505090565b6007546003546000916113db91600160a01b90910463ffffffff169061ffff16611cf0565b63ffffffff16905060005b8181101561148757600154600254600354600092611410928792640100000000900460ff16611199565b6003549091506103e89061142e9062010000900461ffff1683611a8e565b6114389190611abb565b6114429082611add565b90504761144f8287611c0f565b111561145e5750949350505050565b6114688186611c0f565b945061147384611cd3565b9350508061148090611d14565b90506113e6565b509392505050565b6005546001600160a01b031633146114b95760405162461bcd60e51b815260040161068490611b09565b6114c1611662565b60005b82811015611553576006546001600160a01b03166342842e0e30338787868181106114f1576114f1611b32565b905060200201356040518463ffffffff1660e01b815260040161151693929190611b48565b600060405180830381600087803b15801561153057600080fd5b505af1158015611544573d6000803e3d6000fd5b505050508060010190506114c4565b5080156115eb57604051600090339083908381818185875af1925050503d806000811461159c576040519150601f19603f3d011682016040523d82523d6000602084013e6115a1565b606091505b50509050806115e95760405162461bcd60e51b81526020600482015260146024820152732330b4b632b2103a379039b2b7321022ba3432b960611b6044820152606401610684565b505b600760009054906101000a90046001600160a01b03166001600160a01b0316635600231a6040518163ffffffff1660e01b8152600401600060405180830381600087803b15801561163b57600080fd5b505af115801561164f573d6000803e3d6000fd5b5050505061165d6001600055565b505050565b6002600054036116b45760405162461bcd60e51b815260206004820152601f60248201527f5265656e7472616e637947756172643a207265656e7472616e742063616c6c006044820152606401610684565b6002600055565b600080836000036116d257506001905060006116ff565b838302838582816116e5576116e5611aa5565b04146116f85760008092509250506116ff565b6001925090505b9250929050565b80356001600160a01b038116811461171d57600080fd5b919050565b60008060008060006080868803121561173a57600080fd5b61174386611706565b945061175160208701611706565b935060408601359250606086013567ffffffffffffffff8082111561177557600080fd5b818801915088601f83011261178957600080fd5b81358181111561179857600080fd5b8960208285010111156117aa57600080fd5b9699959850939650602001949392505050565b803561ffff8116811461171d57600080fd5b80151581146117dd57600080fd5b50565b600080600080600060a086880312156117f857600080fd5b853594506020860135935061180f604087016117bd565b925061181d606087016117bd565b9150608086013561182d816117cf565b809150509295509295909350565b6000806040838503121561184e57600080fd5b61185783611706565b915061186560208401611706565b90509250929050565b60008083601f84011261188057600080fd5b50813567ffffffffffffffff81111561189857600080fd5b6020830191508360208260051b85010111156116ff57600080fd5b600080602083850312156118c657600080fd5b823567ffffffffffffffff8111156118dd57600080fd5b6118e98582860161186e565b90969095509350505050565b60006020828403121561190757600080fd5b5035919050565b60006020828403121561192057600080fd5b813563ffffffff8116811461193457600080fd5b9392505050565b6000806040838503121561194e57600080fd5b50508035926020909101359150565b6000806040838503121561197057600080fd5b823591506020830135611982816117cf565b809150509250929050565b600080600080608085870312156119a357600080fd5b84359350602085013592506040850135915060608501356119c3816117cf565b939692955090935050565b60008060008060008060c087890312156119e757600080fd5b863595506020870135945060408701359350606087013592506080870135611a0e816117cf565b915060a0870135611a1e816117cf565b809150509295509295509295565b600080600060408486031215611a4157600080fd5b833567ffffffffffffffff811115611a5857600080fd5b611a648682870161186e565b909790965060209590950135949350505050565b634e487b7160e01b600052601160045260246000fd5b8082028115828204841417610eec57610eec611a78565b634e487b7160e01b600052601260045260246000fd5b600082611ad857634e487b7160e01b600052601260045260246000fd5b500490565b81810381811115610eec57610eec611a78565b600060208284031215611b0257600080fd5b5051919050565b6020808252600f908201526e2837b7b61d103737ba1037bbb732b960891b604082015260600190565b634e487b7160e01b600052603260045260246000fd5b6001600160a01b039384168152919092166020820152604081019190915260600190565b600060208284031215611b7e57600080fd5b8151611934816117cf565b60038110611ba757634e487b7160e01b600052602160045260246000fd5b9052565b6001600160a01b0385168152602080820185905260806040830181905284519083018190526000918581019160a0850190845b81811015611bfa57845183529383019391830191600101611bde565b505080935050505061063c6060830184611b89565b80820180821115610eec57610eec611a78565b6001600160a01b038616815260208101859052608060408201819052810183905260006001600160fb1b03841115611c5957600080fd5b8360051b808660a0850137820160a001905061136a6060830184611b89565b600063ffffffff821680611c8e57611c8e611a78565b6000190192915050565b6000600160ff1b8201611cad57611cad611a78565b5060000390565b60006001600160ff1b018201611ccc57611ccc611a78565b5060010190565b6000600160ff1b8201611ce857611ce8611a78565b506000190190565b63ffffffff828116828216039080821115611d0d57611d0d611a78565b5092915050565b600060018201611ccc57611ccc611a7856fea2646970667358221220f6bcdd35bbfdfd615be65bf44f5bdda742a00d3235c148c7f06f8d80ebb10d9d64736f6c63430008150033","linkReferences":{}},"methodIdentifiers":{"_absoluteModule(int256)":"a4f95ba0","_buyCount()":"27b1a8e9","_calculateOrderPrice(int256,uint256,uint256,bool)":"d5294e90","_calculateTotalPrice(int256,uint256,uint256,uint256,bool,bool)":"dbf7cc4f","_collection()":"de8ee997","_initialized()":"3072cf60","_owner()":"b2bdfa7b","_parent()":"b6e41afc","_signedCurrentOrder()":"29b80017","batchBuyNFT(uint256[])":"7dfe59cc","batchSellNFT(uint256[])":"9473102c","calculateTotalPrice(uint256,bool)":"880c904a","deposit(uint256[])":"598b8e71","getBuyOrders()":"e0c5a277","getBuyPrice()":"018a25e8","getSellOrders()":"14dca602","getSellPrice()":"43d32e9c","getSwapFee()":"d4cadf68","initialize(address,address)":"485cc955","mock_set_buyCount(uint32)":"70f2739e","mock_signedCurrentOrder(int256)":"62f68261","onERC721Received(address,address,uint256,bytes)":"150b7a02","properties()":"fcd802b1","setPoolProperties(uint256,uint256,uint16,uint16,bool)":"1da64402","swapNFT(uint256,uint256)":"72841a69","withdraw(uint256[],uint256)":"fc898928"},"id":7}